{
  "_format": "hh-sol-artifact-1",
  "contractName": "PokemonNFT",
  "sourceName": "contracts/PokemonNFT.sol",
  "abi": [
    {
      "inputs": [
        {
          "internalType": "address",
          "name": "initialOwner",
          "type": "address"
        }
      ],
      "stateMutability": "nonpayable",
      "type": "constructor"
    },
    {
      "inputs": [
        {
          "internalType": "address",
          "name": "sender",
          "type": "address"
        },
        {
          "internalType": "uint256",
          "name": "tokenId",
          "type": "uint256"
        },
        {
          "internalType": "address",
          "name": "owner",
          "type": "address"
        }
      ],
      "name": "ERC721IncorrectOwner",
      "type": "error"
    },
    {
      "inputs": [
        {
          "internalType": "address",
          "name": "operator",
          "type": "address"
        },
        {
          "internalType": "uint256",
          "name": "tokenId",
          "type": "uint256"
        }
      ],
      "name": "ERC721InsufficientApproval",
      "type": "error"
    },
    {
      "inputs": [
        {
          "internalType": "address",
          "name": "approver",
          "type": "address"
        }
      ],
      "name": "ERC721InvalidApprover",
      "type": "error"
    },
    {
      "inputs": [
        {
          "internalType": "address",
          "name": "operator",
          "type": "address"
        }
      ],
      "name": "ERC721InvalidOperator",
      "type": "error"
    },
    {
      "inputs": [
        {
          "internalType": "address",
          "name": "owner",
          "type": "address"
        }
      ],
      "name": "ERC721InvalidOwner",
      "type": "error"
    },
    {
      "inputs": [
        {
          "internalType": "address",
          "name": "receiver",
          "type": "address"
        }
      ],
      "name": "ERC721InvalidReceiver",
      "type": "error"
    },
    {
      "inputs": [
        {
          "internalType": "address",
          "name": "sender",
          "type": "address"
        }
      ],
      "name": "ERC721InvalidSender",
      "type": "error"
    },
    {
      "inputs": [
        {
          "internalType": "uint256",
          "name": "tokenId",
          "type": "uint256"
        }
      ],
      "name": "ERC721NonexistentToken",
      "type": "error"
    },
    {
      "inputs": [
        {
          "internalType": "address",
          "name": "owner",
          "type": "address"
        }
      ],
      "name": "OwnableInvalidOwner",
      "type": "error"
    },
    {
      "inputs": [
        {
          "internalType": "address",
          "name": "account",
          "type": "address"
        }
      ],
      "name": "OwnableUnauthorizedAccount",
      "type": "error"
    },
    {
      "anonymous": false,
      "inputs": [
        {
          "indexed": true,
          "internalType": "address",
          "name": "owner",
          "type": "address"
        },
        {
          "indexed": true,
          "internalType": "address",
          "name": "approved",
          "type": "address"
        },
        {
          "indexed": true,
          "internalType": "uint256",
          "name": "tokenId",
          "type": "uint256"
        }
      ],
      "name": "Approval",
      "type": "event"
    },
    {
      "anonymous": false,
      "inputs": [
        {
          "indexed": true,
          "internalType": "address",
          "name": "owner",
          "type": "address"
        },
        {
          "indexed": true,
          "internalType": "address",
          "name": "operator",
          "type": "address"
        },
        {
          "indexed": false,
          "internalType": "bool",
          "name": "approved",
          "type": "bool"
        }
      ],
      "name": "ApprovalForAll",
      "type": "event"
    },
    {
      "anonymous": false,
      "inputs": [
        {
          "indexed": false,
          "internalType": "uint256",
          "name": "_fromTokenId",
          "type": "uint256"
        },
        {
          "indexed": false,
          "internalType": "uint256",
          "name": "_toTokenId",
          "type": "uint256"
        }
      ],
      "name": "BatchMetadataUpdate",
      "type": "event"
    },
    {
      "anonymous": false,
      "inputs": [
        {
          "indexed": true,
          "internalType": "uint256",
          "name": "tokenId",
          "type": "uint256"
        },
        {
          "indexed": true,
          "internalType": "address",
          "name": "seller",
          "type": "address"
        }
      ],
      "name": "ListingCancelled",
      "type": "event"
    },
    {
      "anonymous": false,
      "inputs": [
        {
          "indexed": false,
          "internalType": "uint256",
          "name": "_tokenId",
          "type": "uint256"
        }
      ],
      "name": "MetadataUpdate",
      "type": "event"
    },
    {
      "anonymous": false,
      "inputs": [
        {
          "indexed": true,
          "internalType": "address",
          "name": "previousOwner",
          "type": "address"
        },
        {
          "indexed": true,
          "internalType": "address",
          "name": "newOwner",
          "type": "address"
        }
      ],
      "name": "OwnershipTransferred",
      "type": "event"
    },
    {
      "anonymous": false,
      "inputs": [
        {
          "indexed": true,
          "internalType": "uint256",
          "name": "tokenId",
          "type": "uint256"
        },
        {
          "indexed": true,
          "internalType": "address",
          "name": "seller",
          "type": "address"
        },
        {
          "indexed": false,
          "internalType": "uint256",
          "name": "price",
          "type": "uint256"
        }
      ],
      "name": "PokemonListed",
      "type": "event"
    },
    {
      "anonymous": false,
      "inputs": [
        {
          "indexed": true,
          "internalType": "uint256",
          "name": "tokenId",
          "type": "uint256"
        },
        {
          "indexed": true,
          "internalType": "address",
          "name": "owner",
          "type": "address"
        },
        {
          "indexed": false,
          "internalType": "string",
          "name": "tokenURI",
          "type": "string"
        }
      ],
      "name": "PokemonMinted",
      "type": "event"
    },
    {
      "anonymous": false,
      "inputs": [
        {
          "indexed": true,
          "internalType": "uint256",
          "name": "tokenId",
          "type": "uint256"
        },
        {
          "indexed": true,
          "internalType": "address",
          "name": "seller",
          "type": "address"
        },
        {
          "indexed": true,
          "internalType": "address",
          "name": "buyer",
          "type": "address"
        },
        {
          "indexed": false,
          "internalType": "uint256",
          "name": "price",
          "type": "uint256"
        }
      ],
      "name": "PokemonSold",
      "type": "event"
    },
    {
      "anonymous": false,
      "inputs": [
        {
          "indexed": true,
          "internalType": "address",
          "name": "from",
          "type": "address"
        },
        {
          "indexed": true,
          "internalType": "address",
          "name": "to",
          "type": "address"
        },
        {
          "indexed": true,
          "internalType": "uint256",
          "name": "tokenId",
          "type": "uint256"
        }
      ],
      "name": "Transfer",
      "type": "event"
    },
    {
      "inputs": [
        {
          "internalType": "address",
          "name": "to",
          "type": "address"
        },
        {
          "internalType": "uint256",
          "name": "tokenId",
          "type": "uint256"
        }
      ],
      "name": "approve",
      "outputs": [],
      "stateMutability": "nonpayable",
      "type": "function"
    },
    {
      "inputs": [
        {
          "internalType": "address",
          "name": "owner",
          "type": "address"
        }
      ],
      "name": "balanceOf",
      "outputs": [
        {
          "internalType": "uint256",
          "name": "",
          "type": "uint256"
        }
      ],
      "stateMutability": "view",
      "type": "function"
    },
    {
      "inputs": [
        {
          "internalType": "uint256",
          "name": "tokenId",
          "type": "uint256"
        }
      ],
      "name": "buyPokemon",
      "outputs": [],
      "stateMutability": "payable",
      "type": "function"
    },
    {
      "inputs": [
        {
          "internalType": "uint256",
          "name": "tokenId",
          "type": "uint256"
        }
      ],
      "name": "cancelListing",
      "outputs": [],
      "stateMutability": "nonpayable",
      "type": "function"
    },
    {
      "inputs": [
        {
          "internalType": "uint256",
          "name": "tokenId",
          "type": "uint256"
        }
      ],
      "name": "getApproved",
      "outputs": [
        {
          "internalType": "address",
          "name": "",
          "type": "address"
        }
      ],
      "stateMutability": "view",
      "type": "function"
    },
    {
      "inputs": [
        {
          "internalType": "uint256",
          "name": "tokenId",
          "type": "uint256"
        }
      ],
      "name": "getListing",
      "outputs": [
        {
          "components": [
            {
              "internalType": "uint256",
              "name": "tokenId",
              "type": "uint256"
            },
            {
              "internalType": "address",
              "name": "seller",
              "type": "address"
            },
            {
              "internalType": "uint256",
              "name": "price",
              "type": "uint256"
            },
            {
              "internalType": "bool",
              "name": "isListed",
              "type": "bool"
            }
          ],
          "internalType": "struct PokemonNFT.PokemonListing",
          "name": "",
          "type": "tuple"
        }
      ],
      "stateMutability": "view",
      "type": "function"
    },
    {
      "inputs": [
        {
          "internalType": "address",
          "name": "owner",
          "type": "address"
        },
        {
          "internalType": "address",
          "name": "operator",
          "type": "address"
        }
      ],
      "name": "isApprovedForAll",
      "outputs": [
        {
          "internalType": "bool",
          "name": "",
          "type": "bool"
        }
      ],
      "stateMutability": "view",
      "type": "function"
    },
    {
      "inputs": [
        {
          "internalType": "uint256",
          "name": "tokenId",
          "type": "uint256"
        }
      ],
      "name": "isListed",
      "outputs": [
        {
          "internalType": "bool",
          "name": "",
          "type": "bool"
        }
      ],
      "stateMutability": "view",
      "type": "function"
    },
    {
      "inputs": [
        {
          "internalType": "uint256",
          "name": "tokenId",
          "type": "uint256"
        },
        {
          "internalType": "uint256",
          "name": "price",
          "type": "uint256"
        }
      ],
      "name": "listPokemon",
      "outputs": [],
      "stateMutability": "nonpayable",
      "type": "function"
    },
    {
      "inputs": [
        {
          "internalType": "uint256",
          "name": "",
          "type": "uint256"
        }
      ],
      "name": "listings",
      "outputs": [
        {
          "internalType": "uint256",
          "name": "tokenId",
          "type": "uint256"
        },
        {
          "internalType": "address",
          "name": "seller",
          "type": "address"
        },
        {
          "internalType": "uint256",
          "name": "price",
          "type": "uint256"
        },
        {
          "internalType": "bool",
          "name": "isListed",
          "type": "bool"
        }
      ],
      "stateMutability": "view",
      "type": "function"
    },
    {
      "inputs": [
        {
          "internalType": "address",
          "name": "to",
          "type": "address"
        },
        {
          "internalType": "string",
          "name": "uri",
          "type": "string"
        }
      ],
      "name": "mintPokemon",
      "outputs": [
        {
          "internalType": "uint256",
          "name": "",
          "type": "uint256"
        }
      ],
      "stateMutability": "nonpayable",
      "type": "function"
    },
    {
      "inputs": [],
      "name": "name",
      "outputs": [
        {
          "internalType": "string",
          "name": "",
          "type": "string"
        }
      ],
      "stateMutability": "view",
      "type": "function"
    },
    {
      "inputs": [],
      "name": "owner",
      "outputs": [
        {
          "internalType": "address",
          "name": "",
          "type": "address"
        }
      ],
      "stateMutability": "view",
      "type": "function"
    },
    {
      "inputs": [
        {
          "internalType": "uint256",
          "name": "tokenId",
          "type": "uint256"
        }
      ],
      "name": "ownerOf",
      "outputs": [
        {
          "internalType": "address",
          "name": "",
          "type": "address"
        }
      ],
      "stateMutability": "view",
      "type": "function"
    },
    {
      "inputs": [],
      "name": "renounceOwnership",
      "outputs": [],
      "stateMutability": "nonpayable",
      "type": "function"
    },
    {
      "inputs": [
        {
          "internalType": "address",
          "name": "from",
          "type": "address"
        },
        {
          "internalType": "address",
          "name": "to",
          "type": "address"
        },
        {
          "internalType": "uint256",
          "name": "tokenId",
          "type": "uint256"
        }
      ],
      "name": "safeTransferFrom",
      "outputs": [],
      "stateMutability": "nonpayable",
      "type": "function"
    },
    {
      "inputs": [
        {
          "internalType": "address",
          "name": "from",
          "type": "address"
        },
        {
          "internalType": "address",
          "name": "to",
          "type": "address"
        },
        {
          "internalType": "uint256",
          "name": "tokenId",
          "type": "uint256"
        },
        {
          "internalType": "bytes",
          "name": "data",
          "type": "bytes"
        }
      ],
      "name": "safeTransferFrom",
      "outputs": [],
      "stateMutability": "nonpayable",
      "type": "function"
    },
    {
      "inputs": [
        {
          "internalType": "address",
          "name": "operator",
          "type": "address"
        },
        {
          "internalType": "bool",
          "name": "approved",
          "type": "bool"
        }
      ],
      "name": "setApprovalForAll",
      "outputs": [],
      "stateMutability": "nonpayable",
      "type": "function"
    },
    {
      "inputs": [
        {
          "internalType": "bytes4",
          "name": "interfaceId",
          "type": "bytes4"
        }
      ],
      "name": "supportsInterface",
      "outputs": [
        {
          "internalType": "bool",
          "name": "",
          "type": "bool"
        }
      ],
      "stateMutability": "view",
      "type": "function"
    },
    {
      "inputs": [],
      "name": "symbol",
      "outputs": [
        {
          "internalType": "string",
          "name": "",
          "type": "string"
        }
      ],
      "stateMutability": "view",
      "type": "function"
    },
    {
      "inputs": [
        {
          "internalType": "uint256",
          "name": "tokenId",
          "type": "uint256"
        }
      ],
      "name": "tokenURI",
      "outputs": [
        {
          "internalType": "string",
          "name": "",
          "type": "string"
        }
      ],
      "stateMutability": "view",
      "type": "function"
    },
    {
      "inputs": [
        {
          "internalType": "address",
          "name": "from",
          "type": "address"
        },
        {
          "internalType": "address",
          "name": "to",
          "type": "address"
        },
        {
          "internalType": "uint256",
          "name": "tokenId",
          "type": "uint256"
        }
      ],
      "name": "transferFrom",
      "outputs": [],
      "stateMutability": "nonpayable",
      "type": "function"
    },
    {
      "inputs": [
        {
          "internalType": "address",
          "name": "newOwner",
          "type": "address"
        }
      ],
      "name": "transferOwnership",
      "outputs": [],
      "stateMutability": "nonpayable",
      "type": "function"
    }
  ],
  "bytecode": "0x60806040523480156200001157600080fd5b50604051620020ee380380620020ee83398101604081905262000034916200012c565b806040518060400160405280600a815260200169141bdad95b5bdb93919560b21b815250604051806040016040528060048152602001632825a6a760e11b815250816000908162000086919062000203565b50600162000095828262000203565b5050506001600160a01b038116620000c757604051631e4fbdf760e01b81526000600482015260240160405180910390fd5b620000d281620000da565b5050620002cf565b600780546001600160a01b038381166001600160a01b0319831681179093556040519116919082907f8be0079c531659141344cd1fd0a4f28419497f9722a3daafe3b4186f6b6457e090600090a35050565b6000602082840312156200013f57600080fd5b81516001600160a01b03811681146200015757600080fd5b9392505050565b634e487b7160e01b600052604160045260246000fd5b600181811c908216806200018957607f821691505b602082108103620001aa57634e487b7160e01b600052602260045260246000fd5b50919050565b601f821115620001fe57600081815260208120601f850160051c81016020861015620001d95750805b601f850160051c820191505b81811015620001fa57828155600101620001e5565b5050505b505050565b81516001600160401b038111156200021f576200021f6200015e565b620002378162000230845462000174565b84620001b0565b602080601f8311600181146200026f5760008415620002565750858301515b600019600386901b1c1916600185901b178555620001fa565b600085815260208120601f198616915b82811015620002a0578886015182559484019460019091019084016200027f565b5085821015620002bf5787850151600019600388901b60f8161c191681555b5050505050600190811b01905550565b611e0f80620002df6000396000f3fe6080604052600436106101405760003560e01c8063715018a6116100b6578063c87b56dd1161006f578063c87b56dd14610436578063d75efef014610456578063de74e57b14610469578063e985e9c5146104e2578063f2fde38b14610502578063fcce48831461052257600080fd5b8063715018a61461038e5780638212fa46146103a35780638da5cb5b146103c357806395d89b41146103e1578063a22cb465146103f6578063b88d4fde1461041657600080fd5b806323b872dd1161010857806323b872dd146102c05780632d7e10bc146102e0578063305a67a81461030057806342842e0e146103205780636352211e1461034057806370a082311461036057600080fd5b806301ffc9a71461014557806306fdde031461017a578063081812fc1461019c578063095ea7b3146101d4578063107a274a146101f6575b600080fd5b34801561015157600080fd5b5061016561016036600461189d565b610555565b60405190151581526020015b60405180910390f35b34801561018657600080fd5b5061018f610566565b604051610171919061190a565b3480156101a857600080fd5b506101bc6101b736600461191d565b6105f8565b6040516001600160a01b039091168152602001610171565b3480156101e057600080fd5b506101f46101ef366004611952565b610621565b005b34801561020257600080fd5b5061028261021136600461191d565b604080516080808201835260008083526020808401829052838501829052606093840182905294815260098552839020835191820184528054825260018101546001600160a01b03169482019490945260028401549281019290925260039092015460ff1615159181019190915290565b6040516101719190815181526020808301516001600160a01b0316908201526040808301519082015260609182015115159181019190915260800190565b3480156102cc57600080fd5b506101f46102db36600461197c565b610630565b3480156102ec57600080fd5b506101f46102fb3660046119b8565b6106c0565b34801561030c57600080fd5b506101f461031b36600461191d565b61085c565b34801561032c57600080fd5b506101f461033b36600461197c565b610966565b34801561034c57600080fd5b506101bc61035b36600461191d565b610986565b34801561036c57600080fd5b5061038061037b3660046119da565b610991565b604051908152602001610171565b34801561039a57600080fd5b506101f46109d9565b3480156103af57600080fd5b506103806103be366004611a81565b6109ed565b3480156103cf57600080fd5b506007546001600160a01b03166101bc565b3480156103ed57600080fd5b5061018f610a64565b34801561040257600080fd5b506101f4610411366004611ae3565b610a73565b34801561042257600080fd5b506101f4610431366004611b1f565b610a7e565b34801561044257600080fd5b5061018f61045136600461191d565b610a96565b6101f461046436600461191d565b610aa1565b34801561047557600080fd5b506104b861048436600461191d565b600960205260009081526040902080546001820154600283015460039093015491926001600160a01b039091169160ff1684565b604080519485526001600160a01b0390931660208501529183015215156060820152608001610171565b3480156104ee57600080fd5b506101656104fd366004611b9b565b610dc9565b34801561050e57600080fd5b506101f461051d3660046119da565b610df7565b34801561052e57600080fd5b5061016561053d36600461191d565b60009081526009602052604090206003015460ff1690565b600061056082610e35565b92915050565b60606000805461057590611bce565b80601f01602080910402602001604051908101604052809291908181526020018280546105a190611bce565b80156105ee5780601f106105c3576101008083540402835291602001916105ee565b820191906000526020600020905b8154815290600101906020018083116105d157829003601f168201915b5050505050905090565b600061060382610e5a565b506000828152600460205260409020546001600160a01b0316610560565b61062c828233610e93565b5050565b6001600160a01b03821661065f57604051633250574960e11b8152600060048201526024015b60405180910390fd5b600061066c838333610ea0565b9050836001600160a01b0316816001600160a01b0316146106ba576040516364283d7b60e01b81526001600160a01b0380861660048301526024820184905282166044820152606401610656565b50505050565b336106ca83610986565b6001600160a01b0316146107105760405162461bcd60e51b815260206004820152600d60248201526c2737ba103a34329037bbb732b960991b6044820152606401610656565b600081116107605760405162461bcd60e51b815260206004820152601c60248201527f5072696365206d7573742062652067726561746572207468616e2030000000006044820152606401610656565b60008281526009602052604090206003015460ff16156107b35760405162461bcd60e51b815260206004820152600e60248201526d105b1c9958591e481b1a5cdd195960921b6044820152606401610656565b6040805160808101825283815233602080830182815283850186815260016060860181815260008a81526009865288902096518755925190860180546001600160a01b0319166001600160a01b03909216919091179055516002850155516003909301805460ff191693151593909317909255915183815284917fd03d03c124f8d31bcb52aa26e811eff512fe95baeaeb922089acc22f15c2d75b910160405180910390a35050565b6000818152600960205260409020600101546001600160a01b031633146108b65760405162461bcd60e51b815260206004820152600e60248201526d2737ba103a34329039b2b63632b960911b6044820152606401610656565b60008181526009602052604090206003015460ff166109045760405162461bcd60e51b815260206004820152600a602482015269139bdd081b1a5cdd195960b21b6044820152606401610656565b6000818152600960205260408082208281556001810180546001600160a01b031916905560028101839055600301805460ff1916905551339183917f8e25282255ab31897df2b0456bb993ac7f84d376861aefd84901d2d63a7428a29190a350565b61098183838360405180602001604052806000815250610a7e565b505050565b600061056082610e5a565b60006001600160a01b0382166109bd576040516322718ad960e21b815260006004820152602401610656565b506001600160a01b031660009081526003602052604090205490565b6109e1610f99565b6109eb6000610fc6565b565b6008805460009182919082610a0183611c1e565b919050559050610a118482611018565b610a1b8184611032565b836001600160a01b0316817f96b27df1019bcbfe8a9cd414b8177a1930010eff39c8eab95bd89471d8028ddc85604051610a55919061190a565b60405180910390a39392505050565b60606001805461057590611bce565b61062c338383611082565b610a89848484610630565b6106ba3385858585611121565b60606105608261124c565b60008181526009602090815260409182902082516080810184528154815260018201546001600160a01b03169281019290925260028101549282019290925260039091015460ff16151560608201819052610b335760405162461bcd60e51b8152602060048201526012602482015271141bdad95b5bdb881b9bdd081b1a5cdd195960721b6044820152606401610656565b8060400151341015610b7e5760405162461bcd60e51b8152602060048201526014602482015273125b9cdd59999a58da595b9d081c185e5b595b9d60621b6044820152606401610656565b60208101516001600160a01b03163303610bda5760405162461bcd60e51b815260206004820152601b60248201527f43616e6e6f742062757920796f7572206f776e20506f6b656d6f6e00000000006044820152606401610656565b610be98160200151338461135d565b600081602001516001600160a01b0316826040015160405160006040518083038185875af1925050503d8060008114610c3e576040519150601f19603f3d011682016040523d82523d6000602084013e610c43565b606091505b5050905080610c8d5760405162461bcd60e51b815260206004820152601660248201527511985a5b1959081d1bc81cd95b99081c185e5b595b9d60521b6044820152606401610656565b8160400151341115610d415760408201516000903390610cad9034611c37565b604051600081818185875af1925050503d8060008114610ce9576040519150601f19603f3d011682016040523d82523d6000602084013e610cee565b606091505b5050905080610d3f5760405162461bcd60e51b815260206004820152601760248201527f4661696c656420746f20726566756e64206578636573730000000000000000006044820152606401610656565b505b60008381526009602090815260408083208381556001810180546001600160a01b031916905560028101939093556003909201805460ff191690558381015184830151925192835233926001600160a01b039091169186917f55c0b7a4c1abf6f42bb7332821dd11ae6e5bf1e72e3cdb32d5310e89eba9123f910160405180910390a4505050565b6001600160a01b03918216600090815260056020908152604080832093909416825291909152205460ff1690565b610dff610f99565b6001600160a01b038116610e2957604051631e4fbdf760e01b815260006004820152602401610656565b610e3281610fc6565b50565b60006001600160e01b03198216632483248360e11b148061056057506105608261140d565b6000818152600260205260408120546001600160a01b03168061056057604051637e27328960e01b815260048101849052602401610656565b610981838383600161145d565b6000828152600260205260408120546001600160a01b0390811690831615610ecd57610ecd818486611563565b6001600160a01b03811615610f0b57610eea60008560008061145d565b6001600160a01b038116600090815260036020526040902080546000190190555b6001600160a01b03851615610f3a576001600160a01b0385166000908152600360205260409020805460010190555b60008481526002602052604080822080546001600160a01b0319166001600160a01b0389811691821790925591518793918516917fddf252ad1be2c89b69c2b068fc378daa952ba7f163c4a11628f55a4df523b3ef91a4949350505050565b6007546001600160a01b031633146109eb5760405163118cdaa760e01b8152336004820152602401610656565b600780546001600160a01b038381166001600160a01b0319831681179093556040519116919082907f8be0079c531659141344cd1fd0a4f28419497f9722a3daafe3b4186f6b6457e090600090a35050565b61062c8282604051806020016040528060008152506115c7565b600082815260066020526040902061104a8282611c90565b506040518281527ff8e1a15aba9398e019f0b49df1a4fde98ee17ae345cb5f6b5e2c27f5033e8ce79060200160405180910390a15050565b6001600160a01b0382166110b457604051630b61174360e31b81526001600160a01b0383166004820152602401610656565b6001600160a01b03838116600081815260056020908152604080832094871680845294825291829020805460ff191686151590811790915591519182527f17307eab39ab6107e8899845ad3d59bd9653f200f220920489ca2b5937696c31910160405180910390a3505050565b6001600160a01b0383163b1561124557604051630a85bd0160e11b81526001600160a01b0384169063150b7a0290611163908890889087908790600401611d50565b6020604051808303816000875af192505050801561119e575060408051601f3d908101601f1916820190925261119b91810190611d8d565b60015b611207573d8080156111cc576040519150601f19603f3d011682016040523d82523d6000602084013e6111d1565b606091505b5080516000036111ff57604051633250574960e11b81526001600160a01b0385166004820152602401610656565b805160208201fd5b6001600160e01b03198116630a85bd0160e11b1461124357604051633250574960e11b81526001600160a01b0385166004820152602401610656565b505b5050505050565b606061125782610e5a565b506000828152600660205260408120805461127190611bce565b80601f016020809104026020016040519081016040528092919081815260200182805461129d90611bce565b80156112ea5780601f106112bf576101008083540402835291602001916112ea565b820191906000526020600020905b8154815290600101906020018083116112cd57829003601f168201915b50505050509050600061130860408051602081019091526000815290565b9050805160000361131a575092915050565b81511561134c578082604051602001611334929190611daa565b60405160208183030381529060405292505050919050565b611355846115df565b949350505050565b6001600160a01b03821661138757604051633250574960e11b815260006004820152602401610656565b600061139583836000610ea0565b90506001600160a01b0381166113c157604051637e27328960e01b815260048101839052602401610656565b836001600160a01b0316816001600160a01b0316146106ba576040516364283d7b60e01b81526001600160a01b0380861660048301526024820184905282166044820152606401610656565b60006001600160e01b031982166380ac58cd60e01b148061143e57506001600160e01b03198216635b5e139f60e01b145b8061056057506301ffc9a760e01b6001600160e01b0319831614610560565b808061147157506001600160a01b03821615155b1561153357600061148184610e5a565b90506001600160a01b038316158015906114ad5750826001600160a01b0316816001600160a01b031614155b80156114c057506114be8184610dc9565b155b156114e95760405163a9fbf51f60e01b81526001600160a01b0384166004820152602401610656565b81156115315783856001600160a01b0316826001600160a01b03167f8c5be1e5ebec7d5bd14f71427d1e84f3dd0314c0f7b2291e5b200ac8c7c3b92560405160405180910390a45b505b5050600090815260046020526040902080546001600160a01b0319166001600160a01b0392909216919091179055565b61156e838383611654565b610981576001600160a01b03831661159c57604051637e27328960e01b815260048101829052602401610656565b60405163177e802f60e01b81526001600160a01b038316600482015260248101829052604401610656565b6115d183836116b7565b610981336000858585611121565b60606115ea82610e5a565b50600061160260408051602081019091526000815290565b90506000815111611622576040518060200160405280600081525061164d565b8061162c8461171c565b60405160200161163d929190611daa565b6040516020818303038152906040525b9392505050565b60006001600160a01b038316158015906113555750826001600160a01b0316846001600160a01b0316148061168e575061168e8484610dc9565b806113555750506000908152600460205260409020546001600160a01b03908116911614919050565b6001600160a01b0382166116e157604051633250574960e11b815260006004820152602401610656565b60006116ef83836000610ea0565b90506001600160a01b03811615610981576040516339e3563760e11b815260006004820152602401610656565b60606000611729836117af565b600101905060008167ffffffffffffffff811115611749576117496119f5565b6040519080825280601f01601f191660200182016040528015611773576020820181803683370190505b5090508181016020015b600019016f181899199a1a9b1b9c1cb0b131b232b360811b600a86061a8153600a850494508461177d57509392505050565b60008072184f03e93ff9f4daa797ed6e38ed64bf6a1f0160401b83106117ee5772184f03e93ff9f4daa797ed6e38ed64bf6a1f0160401b830492506040015b6d04ee2d6d415b85acef8100000000831061181a576d04ee2d6d415b85acef8100000000830492506020015b662386f26fc10000831061183857662386f26fc10000830492506010015b6305f5e1008310611850576305f5e100830492506008015b612710831061186457612710830492506004015b60648310611876576064830492506002015b600a83106105605760010192915050565b6001600160e01b031981168114610e3257600080fd5b6000602082840312156118af57600080fd5b813561164d81611887565b60005b838110156118d55781810151838201526020016118bd565b50506000910152565b600081518084526118f68160208601602086016118ba565b601f01601f19169290920160200192915050565b60208152600061164d60208301846118de565b60006020828403121561192f57600080fd5b5035919050565b80356001600160a01b038116811461194d57600080fd5b919050565b6000806040838503121561196557600080fd5b61196e83611936565b946020939093013593505050565b60008060006060848603121561199157600080fd5b61199a84611936565b92506119a860208501611936565b9150604084013590509250925092565b600080604083850312156119cb57600080fd5b50508035926020909101359150565b6000602082840312156119ec57600080fd5b61164d82611936565b634e487b7160e01b600052604160045260246000fd5b600067ffffffffffffffff80841115611a2657611a266119f5565b604051601f8501601f19908116603f01168101908282118183101715611a4e57611a4e6119f5565b81604052809350858152868686011115611a6757600080fd5b858560208301376000602087830101525050509392505050565b60008060408385031215611a9457600080fd5b611a9d83611936565b9150602083013567ffffffffffffffff811115611ab957600080fd5b8301601f81018513611aca57600080fd5b611ad985823560208401611a0b565b9150509250929050565b60008060408385031215611af657600080fd5b611aff83611936565b915060208301358015158114611b1457600080fd5b809150509250929050565b60008060008060808587031215611b3557600080fd5b611b3e85611936565b9350611b4c60208601611936565b925060408501359150606085013567ffffffffffffffff811115611b6f57600080fd5b8501601f81018713611b8057600080fd5b611b8f87823560208401611a0b565b91505092959194509250565b60008060408385031215611bae57600080fd5b611bb783611936565b9150611bc560208401611936565b90509250929050565b600181811c90821680611be257607f821691505b602082108103611c0257634e487b7160e01b600052602260045260246000fd5b50919050565b634e487b7160e01b600052601160045260246000fd5b600060018201611c3057611c30611c08565b5060010190565b8181038181111561056057610560611c08565b601f82111561098157600081815260208120601f850160051c81016020861015611c715750805b601f850160051c820191505b8181101561124357828155600101611c7d565b815167ffffffffffffffff811115611caa57611caa6119f5565b611cbe81611cb88454611bce565b84611c4a565b602080601f831160018114611cf35760008415611cdb5750858301515b600019600386901b1c1916600185901b178555611243565b600085815260208120601f198616915b82811015611d2257888601518255948401946001909101908401611d03565b5085821015611d405787850151600019600388901b60f8161c191681555b5050505050600190811b01905550565b6001600160a01b0385811682528416602082015260408101839052608060608201819052600090611d83908301846118de565b9695505050505050565b600060208284031215611d9f57600080fd5b815161164d81611887565b60008351611dbc8184602088016118ba565b835190830190611dd08183602088016118ba565b0194935050505056fea2646970667358221220140f716c06620b00e5f54a1595969581831ccc9f572dc301921246c279c3a88964736f6c63430008140033",
  "linkReferences": {},
  "deployedLinkReferences": {}
}